:100000000C9486000C94AE000C94AE000C94D404B6
:100010000C94D4040C94D4040C94AE000C94AE0054
:100020000C94AE000C94AE000C94AE000C94AE0098
:100030000C94AE000C94AE000C94AE000C94AE0088
:100040000C94D9020C94AE000C94A2040C947C0481
:100050000C94AE000C94AE000C94AE000C94AE0068
:100060000C94AE000C94AE0061742B7665727369CB
:100070006F6E0061742B7365745F636F6E66696782
:100080003D6465766963653A736C6565703A300006
:1000900061742B7365745F636F6E6669673D646539
:1000A000766963653A736C6565703A3100000000EB
:1000B0000800020100000304070000000000000027
:1000C000000000000023002600290000000000249A
:1000D0000027002A0000000000250028002B000453
:1000E00004040404040404020202020202030303DF
:1000F00003030301020408102040800102040810D9
:1001000020010204081020006E0ABA0B11241FBE41
:10011000CFEFD8E0DEBFCDBF23E0A6E5B2E001C05F
:100120001D92A33AB207E1F712E0A0E0B1E0EEEBD6
:10013000FDE102C005900D92A635B107D9F710E098
:10014000C5E8D0E004C02197FE010E94AD0CC43880
:10015000D107C9F70E94E8060C94D20E0C94000057
:100160000895CF92DF92EF92FF920F931F93CF9358
:10017000DF936C017A018B01C0E0D0E0CE15DF0582
:1001800081F0D8016D918D01D601ED91FC91019026
:10019000F081E02DC6010995892B11F02196EECF53
:1001A0007E01C701DF91CF911F910F91FF90EF90DA
:1001B000DF90CF900895FC01538D448D252F30E0C2
:1001C000842F90E0821B930B541710F0CF96089564
:1001D00001970895FC01918D828D981761F0828DB1
:1001E000DF01A80FB11D5D968C91928D9F5F9F736B
:1001F000928F90E008958FEF9FEF0895FC01918D0D
:10020000828D981731F0828DE80FF11D858D90E079
:1002100008958FEF9FEF0895FC01918D228D892F16
:1002200090E0805C9F4F821B91098F7399270895FE
:1002300081EA92E00E940C0121E0892B09F420E080
:10024000822F0895FC01848DDF01A80FB11DA35AF0
:10025000BF4F2C91848D90E001968F739927848FE6
:10026000A689B7892C93A089B1898C918370806409
:100270008C93938D848D981306C00288F389E02DAA
:1002800080818F7D80830895EF92FF920F931F935B
:10029000CF93DF93EC0181E0888F9B8D8C8D981339
:1002A00005C0E889F989808185FD26C0F62E0B8D71
:1002B00010E00F5F1F4F0F731127E02E8C8DE81297
:1002C0000CC00FB607FCFACFE889F989808185FF59
:1002D000F5CFCE010E942201F1CF8B8DFE01E80FF8
:1002E000F11DE35AFF4FF0829FB7F8940B8FEA8914
:1002F000FB89808180620AC09FB7F894EE89FF89EC
:100300006083E889F98980818370806480839FBFDE
:1003100081E090E0DF91CF911F910F91FF90EF90DE
:100320000895CF93DF93EC01888D8823C9F0EA8983
:10033000FB89808185FD05C0A889B9898C9186FDDE
:100340000FC00FB607FCF5CF808185FFF2CFA889DB
:10035000B9898C9185FFEDCFCE010E942201E7CFB4
:10036000DF91CF91089580E090E0892B29F00E94E1
:10037000180181110C940000089520913E033091E2
:100380003F032817390771F49091960280919702E4
:10039000981741F0E0919602F0E0EA5AFD4F808113
:1003A00090E008958FEF9FEF089508951F93CF93E6
:1003B000DF93DC015C968D919C915D97009739F4F9
:1003C00021E030E013963C932E9312973BC0519658
:1003D000ED91FC91529750962C915097322F309579
:1003E0001FB75E964C915E97742F727041FD6095B9
:1003F000F8944081772311F0422B01C043234083BE
:10040000EC012197F1F748E0508160FF02C0522BC8
:1004100001C053235083EC012197F1F766954150B9
:1004200099F78081772319F08323808302C0282BDA
:1004300020831FBF5C968D919C915D970197F1F78A
:1004400081E090E0DF91CF911F91089520913E03CC
:1004500030913F032817390771F48091970220915A
:10046000960290E0805C9F4F821B910960E470E0EF
:100470000E94850C089580E090E0089520913E034D
:1004800030913F0328173907B9F490919602809173
:100490009702981789F0E0919602F0E0EA5AFD4F32
:1004A00080812091960230E02F5F3F4F2F733327DA
:1004B0002093960290E008958FEF9FEF089580E0DB
:1004C00090E008950E949A0E6115710579F0FB0184
:1004D00001900020E9F73197AF01461B570BDC0173
:1004E000ED91FC910280F381E02D099480E090E091
:1004F00008950F931F93CF93DF93EC010E94640242
:100500008C0161E471E0CE010E946402800F911FB2
:10051000DF91CF911F910F9108950F931F93CF9368
:10052000DF93EC0188819981009729F02A813B8132
:100530002617370788F48B016F5F7F4F0E94D40D19
:10054000009761F0998388831B830A832C813D8106
:10055000232B11F4FC01108281E001C080E0DF91C7
:10056000CF911F910F9108953FB7F8948091990210
:1005700090919A02A0919B02B0919C0226B5A89BF3
:1005800005C02F3F19F00196A11DB11D3FBFBA2F25
:10059000A92F982F8827820F911DA11DB11DBC0185
:1005A000CD0142E0660F771F881F991F4A95D1F74A
:1005B00008951F920F920FB60F9211242F933F931D
:1005C0008F939F93AF93BF9380919D0290919E02D2
:1005D000A0919F02B091A0023091980223E0230FD6
:1005E0002D3720F40196A11DB11D05C026E8230F6B
:1005F0000296A11DB11D2093980280939D029093B5
:100600009E02A0939F02B093A002809199029091C4
:100610009A02A0919B02B0919C020196A11DB11D6E
:100620008093990290939A02A0939B02B0939C02AC
:10063000BF91AF919F918F913F912F910F900FBEDE
:100640000F901F901895AF92BF92CF92DF92EF92CA
:10065000FF920F931F93CF93DF93DC01CD90DC903B
:100660001197C114D10409F443C01496CD91DC91C3
:1006700015972097E9F18C0176015701BFEFAB1A6E
:10068000BB0AF7018081082E000C990B0E94320CE6
:10069000892B11F07501F1CF2197CC0DDD1D8881DB
:1006A000082E000C990B0E94320C892B29F0CE15D4
:1006B000DF0510F02197F3CFAE014F5F5F4F4E196A
:1006C0005F09D80115965C934E931497CE14DF04FE
:1006D00020F4B701C6010E949F0ED801ED91FC9154
:1006E000119714968D919C911597E80FF91F108220
:1006F000DF91CF911F910F91FF90EF90DF90CF90FE
:10070000BF90AF900895EF92FF920F931F93CF93F6
:10071000DF936115710511F480E01CC0411551058E
:10072000C1F07B01EC018C819D818A01080F191FAA
:10073000B801CE010E948D02882371F3288139818E
:100740008C819D81B701820F931F0E94B10E1D8382
:100750000C8381E0DF91CF911F910F91FF90EF907B
:100760000895CF93DF93EC0188819981009711F070
:100770000E944B0D198218821D821C821B821A82D4
:10078000DF91CF910895CF93DF93EC01611571054F
:1007900061F0FB0101900020E9F73197AF01461BA2
:1007A000570B0E948303811103C0CE010E94B10345
:1007B000CE01DF91CF910895EF92FF920F931F9397
:1007C000CF93DF93EC018B016115710551F0CB01E3
:1007D0000E94040C7C01BC01CE010E948D0281119B
:1007E00004C0CE010E94B10307C0FD82EC82B801B3
:1007F000888199810E94FD0BCE01DF91CF911F91DD
:100800000F91FF90EF900895EF92FF920F931F9337
:10081000CF93DF93EC017B018A01BA010E948D0224
:10082000811104C0CE010E94B10307C01D830C8357
:10083000B701888199810E94B10ECE01DF91CF91DD
:100840001F910F91FF90EF900895CF93DF93EC01EC
:10085000FB018617970761F0608171816115710551
:1008600029F0448155810E94040402C00E94B10312
:10087000CE01DF91CF910895FC01808191810C948C
:100880004B0DFC0111821082138212821582148298
:100890000C942504FC0111821082138212821582AD
:1008A00014826115710551F0FB0101900020E9F7F8
:1008B0003197AF01461B570B0C94040408950F9316
:1008C0001F93CF93DF93EC01FB014481558160813D
:1008D0007181E881F9810280F381E02D09958C0115
:1008E00061E471E0CE010E946402800F911FDF91EC
:1008F000CF911F910F9108951F920F920FB60F92F3
:1009000011242F933F934F935F936F937F938F9314
:100910009F93AF93BF93EF93FF9381EA92E00E947E
:100920002201FF91EF91BF91AF919F918F917F91A4
:100930006F915F914F913F912F910F900FBE0F904C
:100940001F9018951F920F920FB60F9211242F939C
:100950008F939F93EF93FF93E091B102F091B202D6
:100960008081E091B702F091B80282FD12C09081BF
:100970008091BA028F5F8F732091BB02821751F072
:10098000E091BA02F0E0EF55FD4F958F8093BA02E7
:1009900001C08081FF91EF919F918F912F910F90D6
:1009A0000FBE0F901F9018951F920F920FB60F92C7
:1009B00011242F933F934F935F936F937F938F9364
:1009C0009F93AF93BF93EF93FF93E0913E03F0911A
:1009D0003F03309709F451C0968DA685B78585856C
:1009E00091FF04C09C91892329F447C09C918923DD
:1009F00009F043C0A389B4899C9185898095892396
:100A00008C93868997890197F1F7608D718DA68502
:100A1000B785558538E020E0CB010197F1F7822FAB
:100A200090E095958795282F4C91452309F02068F3
:100A3000315091F7868D81FD20958091970290E04D
:100A400001968F73992730919602381749F0A0913B
:100A50009702B0E0AA5ABD4F2C938093970203C02F
:100A6000868D8160868F828D938D0197F1F7A389A2
:100A7000B4899C918589892B8C93FF91EF91BF91CB
:100A8000AF919F918F917F916F915F914F913F9126
:100A90002F910F900FBE0F901F901895CF93DF935B
:100AA000EC012FB7F89480919D0290919E02A09145
:100AB0009F02B091A0022FBF88879987AA87BB8722
:100AC000E881F9810284F385E02DCE01099597FF35
:100AD0001EC02FB7F89480919D0290919E02A09124
:100AE0009F02B091A0022FBF488559856A857B85FA
:100AF000841B950BA60BB70B4C815D816E817F81AA
:100B000084179507A607B707D8F28FEF9FEFDF91FD
:100B1000CF910895CF93DF93EC018091870390915B
:100B200088030097C9F0688179816115710591F09A
:100B30004091890350918A032C813D8142175307CC
:100B400048F00E94B10E8C819D8190938C0380931C
:100B50008B0318C00E944B0D888199819093880364
:100B6000809387038A819B8190938A038093890372
:100B70008C819D8190938C0380938B0319821882C2
:100B80001B821A821D821C82DF91CF910895CF9320
:100B9000DF93FC0124813581232B71F0FB01DC0103
:100BA000CD91DC9160817181CE010E94B80E0097D9
:100BB00019F08C1B9D0B02C08FEF9FEFDF91CF913F
:100BC0000895CF93DF93EC01FB014481558160814F
:100BD00071810E948303811103C0CE010E94B10381
:100BE000CE01DF91CF910895EF92FF920F931F9363
:100BF000CF93DF93CDB7DEB762970FB6F894DEBF21
:100C00000FBECDBF8C01CB01F8011182108213827F
:100C10001282158214824AE09E012F5F3F4F7901B4
:100C2000B9010E940D0CF70101900020E9F73197FE
:100C3000AF014E195F09B701C8010E940404629612
:100C40000FB6F894DEBF0FBECDBFDF91CF911F91DD
:100C50000F91FF90EF9008958F929F92AF92BF9265
:100C6000CF92DF92EF92FF926B017C010E94B4025F
:100C70004B015C01C114D104E104F104F1F00E94C4
:100C8000B402DC01CB0188199909AA09BB09883E85
:100C90009340A105B10570F321E0C21AD108E10823
:100CA000F10888EE880E83E0981EA11CB11CC114C7
:100CB000D104E104F10419F7DDCFFF90EF90DF904C
:100CC000CF90BF90AF909F908F900895EF92FF923A
:100CD0000F931F93CF93DF9300D0CDB7DEB78C0176
:100CE0007B0163E471E00E944A04C7010E944E0543
:100CF000181619065CF489831A8241E050E0BE019F
:100D00006F5F7F4FC8010E948303EFCFC8010F9030
:100D10000F90DF91CF911F910F91FF90EF90089569
:100D2000EF92FF920F931F93CF93DF9300D000D0E9
:100D300000D0CDB7DEB78C017B0180915F0390912D
:100D40006003DC01ED91FC910084F185E02D0995B3
:100D5000A0915F03B0916003892B49F0ED91FC9164
:100D600011970284F385E02DCD010995E6CFB701F7
:100D7000CD010E945F0468EC70E080E090E00E948A
:100D80002C0660915F0370916003CE0101960E9472
:100D90006606CE0101960E948A05CE0101960E9448
:100DA0003C0487E893E00E94230367E873E0C801EE
:100DB0000E944104C80126960FB6F894DEBF0FBE0C
:100DC000CDBFDF91CF911F910F91FF90EF900895CC
:100DD000CF93DF93CDB7DEB76E970FB6F894DEBF33
:100DE0000FBECDBF789484B5826084BD84B5816028
:100DF00084BD85B5826085BD85B5816085BD8091E6
:100E00006E00816080936E0010928100809181005D
:100E10008260809381008091810081608093810055
:100E2000809180008160809380008091B100846017
:100E30008093B1008091B00081608093B000809178
:100E40007A00846080937A0080917A008260809337
:100E50007A0080917A00816080937A0080917A0094
:100E6000806880937A001092C10010925B03109208
:100E70005A0310925903109258031092570310927C
:100E800056038FE190E090935D0380935C03909113
:100E90004C03963108F058C021E030E030935703FE
:100EA000209356032DE130E03093590320935803EB
:100EB0002DE030E030935B0320935A0340916800AB
:100EC000983058F031E09E3008F430E021E0822F75
:100ED00001C0880F3A95EAF701C084E0842B809323
:100EE0006800983038F09E3040F0963148F020E0AD
:100EF00030E008C02DE630E005C02BE630E002C04F
:100F00002CE630E03093540320935303983030F4B0
:100F100081E001C0880F9A95EAF70EC0292F30E0D2
:100F20009E3018F42850310902C02E50310981E05A
:100F300001C0880F2A95EAF78093550380915C03DE
:100F400090915D030197F1F780915A0390915B03B3
:100F5000892B49F1E0913E03F0913F0323E0E03417
:100F6000F20709F1309739F0A389B4899C918589FA
:100F7000809589238C9380915E038E7F80935E039E
:100F8000109297021092960280E493E090933F03B0
:100F900080933E03E0915303F0915403908180913C
:100FA0005503892B808380E493E00E943E0297FFE3
:100FB000FACF64E471E080E493E00E947902E0916A
:100FC000B102F091B20282E08083E091AD02F09133
:100FD000AE021082E091AF02F091B00280E1808316
:100FE0001092B902E091B502F091B60286E08083DA
:100FF000E091B302F091B402808180618083E0913E
:10100000B302F091B402808188608083E091B302E2
:10101000F091B402808180688083E091B302F09106
:10102000B40280818F7D808381EA92E00E940C016E
:10103000892B29F081EA92E00E94EA00F5CF1A821A
:1010400019821C821B821E821D8268E670E0CE011E
:1010500001960E94DC03BE016F5F7F4FCE010796B1
:101060000E949006CE0107960E948A05CE0107963F
:101070000E943C04CE0101960E943C0487E893E064
:101080000E94230367E873E0CE0101960E944104A9
:10109000BE016F5F7F4F80E493E00E945F04CE014A
:1010A00001960E943C0468EC70E080E090E00E94B1
:1010B0002C066CE471E080E493E00E9479026EE11A
:1010C00070E0CE010D960E94F40560E070E0CE0164
:1010D00043960E94F4056CE671E0CE0149960E94A9
:1010E0004A04BE016D5E7F4FCE0149960E94E10524
:1010F00060EB71E00E94C303BE01635F7F4F0E94FB
:10110000E105BC01CE0107960E944104BE01695F62
:101110007F4FCE0101960E949006CE0101960E945B
:101120008A05CE0101960E943C04CE0107960E94DA
:101130003C04CE0149960E943C04CE0143960E9495
:101140003C04CE010D960E943C046EE871E0CE0195
:1011500001960E944A04BE016F5F7F4F87E893E0CB
:101160000E94C7058C01CE0101960E943C04101616
:1011700011060CF05FC180EDC82E87E0D82EE12C5F
:10118000F12C61E971E080E493E00E94790263E46C
:1011900071E0CE010D960E944A0461E070E0CE013C
:1011A00007960E94F40564EA71E0CE0101960E9460
:1011B0004A04BE01695F7F4FCE0101960E94E1059E
:1011C00060EB71E00E94C30360E071E00E94C30322
:1011D000BC01CE010D960E942504CE0101960E940D
:1011E0003C04CE0107960E943C04BE01635F7F4F22
:1011F000CE0101960E944104BE016F5F7F4FCE0178
:1012000007960E949006CE0107960E948A05CE019D
:1012100007960E943C04CE0101960E943C04209156
:101220008B0330918C0389899A892817390729F50E
:1012300080918703909188036D857E85009719F0D2
:1012400061157105A9F46115710551F0211531057C
:1012500039F0FB01808190E09195819591090AC058
:10126000009769F0232B59F0FC01808190E002C0C7
:101270000E94A80E11E0892B19F010E001C011E0C6
:10128000CE010D960E943C04112309F4D0C08FB703
:10129000F89440909D0250909E0260909F02709042
:1012A000A0028FBF2FB7F89480919D0290919E026B
:1012B000A0919F02B091A0022FBF84199509A609A1
:1012C000B70980399F45A140B10508F0B0C06091D1
:1012D0005F0370916003FB01C482D582E682F782CE
:1012E000CE0101960E946606CE0101960E948A05F3
:1012F000CE0101960E943C0487E893E00E942303FC
:1013000067E873E0CE010D960E94410489899A89AD
:10131000892B81F0ED85FE858081882359F0CE01EF
:101320000D960E942303BE01635F7F4F80E493E02C
:101330000E945F046EE871E0CE0107960E944A04A5
:1013400089899A89892B71F0AD84BE846F817885F3
:10135000C5010E94B80E009729F08A199B0918163A
:101360001906BCF062EB71E0CE0101960E944A04BE
:10137000BE016F5F7F4FCE010D960E94C70501E051
:10138000181619060CF000E0CE0101960E943C04EC
:1013900001C0012FCE0107960E943C04002309F4EE
:1013A00041C01A8219821C821B821E821D8260E942
:1013B00070E0CE0101960E94DC03BE016F5F7F4F9B
:1013C000CE0107960E949006CE0107960E943C042B
:1013D000CE0101960E943C0460E177E280E090E05B
:1013E0000E942C0618861F821A8619861C861B8668
:1013F00063E770E0CE0107960E94DC03BE01695FDF
:101400007F4FCE0101960E949006CE0101960E9468
:101410003C04CE0107960E943C04CE010D960E942A
:101420003C0405C0CE010D960E943C043BCF0E94B7
:10143000B301A7CE68EB71E080E493E00E947902EB
:10144000FFCF90E0FC01E355FF4F2491FC01ED50EC
:10145000FF4F3491FC01E152FF4FE491EE2309F478
:101460003CC0222339F1233091F038F42130A9F027
:10147000223001F584B58F7D12C0273091F02830DD
:10148000A1F02430B9F4809180008F7D03C0809159
:1014900080008F77809380000DC084B58F7784BDE6
:1014A00009C08091B0008F7703C08091B0008F7D1C
:1014B0008093B000F0E0EE0FFF1FEB52FF4FA591BD
:1014C000B4919FB7F894611104C08C913095382382
:1014D00002C0EC913E2B3C939FBF0895CF92DF92C8
:1014E000EF92FF92CF93DF931092A4021092A30287
:1014F00068EEC62E63E0D62EE12CF12CC092A50238
:10150000D092A602E092A702F092A80281E291E0B6
:101510009093A2028093A10285EC90E09093AE029A
:101520008093AD0284EC90E09093B0028093AF0280
:1015300080EC90E09093B2028093B10281EC90E055
:101540009093B4028093B30282EC90E09093B60241
:101550008093B50286EC90E09093B8028093B70236
:101560001092BA021092BB021092BC021092BD02FD
:1015700063E471E087E893E00E944A0469EF71E058
:101580008DE893E00E944A046AE072E083E993E008
:101590000E944A046BE172E089E993E00E944A04E8
:1015A0001092430310924203C0924403D092450329
:1015B000E0924603F092470383E391E09093410366
:1015C00080934003109257031092560310925903D0
:1015D0001092580310925B0310925A0310925D030D
:1015E00010925C0360915E036E7F6D7F60935E037B
:1015F0006695617081E068278BE00E94210AEEEF1A
:10160000F0E02491EAEEF0E08491882399F090E0F4
:10161000880F991FFC01E553FF4FA591B491FC0180
:10162000EB52FF4F859194918FB7F894EC91E22B98
:10163000EC938FBFEEEFF0E0E491E0935003EAEE1D
:10164000F0E0E491F0E0EE0FFF1FEB52FF4F8591C9
:1016500094919093520380935103EDEFF0E0249125
:10166000E9EEF0E084918823C1F090E0880F991FA3
:10167000FC01E553FF4FC591D491FC01EB52FF4FA4
:10168000A591B4919FB7F8948881E22FE0958E23BD
:1016900088838C91E823EC939FBF80915E0381FD4A
:1016A00004C061E08AE00E94210A8AE080934C0332
:1016B000EDEFF0E0E491E0934D03E9EEF0E0E4912A
:1016C000F0E0EE0FFF1FEF53FF4F85919491909341
:1016D0004F0380934E0381EA92E0909360038093DE
:1016E0005F0380E493E090936203809361036CE373
:1016F00072E083E693E00E944A0465E472E089E6C2
:1017000093E00E944A0463E471E08FE693E00E9454
:101710004A0463E471E085E793E00E944A0463E4CD
:1017200071E08BE793E00E944A0463E471E081E892
:1017300093E00E944A04E0915F03F091600380ED22
:1017400097E0A0E0B0E084839583A683B783E0911F
:101750006103F091620388EE93E0A0E0B0E084833F
:101760009583A683B783DF91CF91FF90EF90DF90B1
:10177000CF90089581E893E00E943C048BE793E0CA
:101780000E943C0485E793E00E943C048FE693E0CE
:101790000E943C0489E693E00E943C0483E693E0C7
:1017A0000E943C0483E391E09093410380934003C3
:1017B00080913E0390913F038054934071F4E091F7
:1017C0005303F091540390818091550380958923B0
:1017D000808310923F0310923E0389E993E00E94B8
:1017E0003C0483E993E00E943C048DE893E00E946E
:1017F0003C0487E893E00C943C04FB01DC01059079
:101800000D920020E1F70895FC0105900020E9F712
:10181000809590958E0F9F1F0895BB274A3031F415
:10182000992322F4BDE2909581959F4F0C94190C59
:10183000BB27FB015527AA27880F991FAA1FA417AA
:1018400010F0A41B83955051B9F7A05DAA3308F09E
:10185000A95DA193009779F7B111B1931192CB01D2
:101860000C943B0C91110C944B0C803219F0895064
:101870008550C8F70895DC01FC01672F719177232B
:10188000E1F7329704C07C916D9370836291AE173B
:10189000BF07C8F308959927882708952F923F928C
:1018A0004F925F926F927F928F929F92AF92BF9270
:1018B000CF92DF92EF92FF920F931F93CF93DF931C
:1018C000CDB7DEB7CA1BDB0B0FB6F894DEBF0FBE79
:1018D000CDBF09942A88398848885F846E847D84C6
:1018E0008C849B84AA84B984C884DF80EE80FD80C8
:1018F0000C811B81AA81B981CE0FD11D0FB6F8943E
:10190000DEBF0FBECDBFED01089597FB072E16F485
:10191000009407D077FD09D00E94990C07FC05D0F0
:101920003EF4909581959F4F0895709561957F4FF6
:101930000895AA1BBB1B51E107C0AA1FBB1FA61716
:10194000B70710F0A61BB70B881F991F5A95A9F768
:1019500080959095BC01CD010895EE0FFF1F059075
:10196000F491E02D09940F931F93CF93DF9382306E
:10197000910510F482E090E0E091A103F091A203C0
:1019800020E030E0A0E0B0E0309719F140815181D3
:101990000281138148175907C8F08417950769F425
:1019A000109731F012960C93129713961C9327C040
:1019B0000093A1031093A20322C02115310519F051
:1019C0004217530718F49A01BD01EF01DF01F80136
:1019D000DBCF21153105F9F0281B390B24303105F7
:1019E00080F48A819B816115710521F0FB0193834D
:1019F000828304C09093A2038093A103FE013296D8
:101A000044C0FE01E20FF31F8193919322503109EC
:101A1000398328833AC020919F033091A003232B60
:101A200041F42091190130911A013093A0032093C1
:101A30009F0320911701309118012115310541F4C0
:101A40002DB73EB740911B0150911C01241B350B53
:101A5000E0919F03F091A003E217F307A0F42E1B7F
:101A60003F0B2817390778F0AC014E5F5F4F241702
:101A7000350748F04E0F5F1F5093A00340939F031C
:101A80008193919302C0E0E0F0E0CF01DF91CF912C
:101A90001F910F910895CF93DF93009709F481C0B0
:101AA000FC01329713821282A091A103B091A2038C
:101AB000109781F420813181820F931F20919F0321
:101AC0003091A0032817390751F5F093A003E09354
:101AD0009F0367C0ED0120E030E0CE17DF0740F440
:101AE0004A815B819E0141155105F1F0EA01F5CF74
:101AF000D383C28340815181840F951FC817D907B2
:101B000059F488819981840F951F0296918380836F
:101B10008A819B81938382832115310529F4F09377
:101B2000A203E093A1033DC0E901FB83EA8349914D
:101B30005991C40FD51FEC17FD0761F48081918185
:101B4000840F951F0296E90199838883828193818E
:101B50009B838A83E0E0F0E012968D919C9113972D
:101B6000009719F0FD01DC01F7CF8D919C91119741
:101B70009D012E5F3F4F820F931F20919F03309155
:101B8000A0032817390769F4309729F41092A203AB
:101B90001092A10302C013821282B093A003A093FB
:101BA0009F03DF91CF910895A0E0B0E0EAEDFDE062
:101BB0000C94520CEC01009721F4CB010E94B30C61
:101BC000B4C0FC01E60FF71F9C0122503109E21757
:101BD000F30708F4A8C0D9010D911C9111970617BD
:101BE0001707B0F00530110508F49BC0C801049731
:101BF0008617970708F495C002501109061B170BAA
:101C0000019311936D937C93CF010E944B0D89C07A
:101C10005B01A01AB10A4C01800E911EA091A10394
:101C2000B091A203612C712CE12CF12C109709F4D6
:101C300046C08D919C911197A815B905B1F56C011D
:101C400042E0C40ED11CCA14DB0478F14C018A189E
:101C50009B08640142E0C40ED11C1296BC901297FE
:101C60001396AC91B5E0CB16D10440F0B282A383B9
:101C700091828082D9016D937C9309C00E5F1F4FC2
:101C8000800F911FF90191838083EB2DFA2FE114CE
:101C9000F10431F0D7011396FC93EE93129741C0F3
:101CA000F093A203E093A1033CC06816790608F400
:101CB0003C017D0112960D90BC91A02DB7CF809173
:101CC0009F039091A00388169906E1F466167706A3
:101CD000C8F48091170190911801009741F48DB7D5
:101CE0009EB740911B0150911C01841B950BE81776
:101CF000F907C8F4F093A003E0939F03F9017183FF
:101D000060830FC0CB010E94B30C7C01009759F097
:101D1000A801BE010E949F0ECE010E944B0DC7017B
:101D200004C0CE0102C080E090E0CDB7DEB7EEE0A7
:101D30000C946E0C81E090E0F8940C94D20EFB01B0
:101D4000DC0102C001900D9241505040D8F7089537
:101D5000FB01DC018D91019080190110D9F3990BE1
:101D60000895FB01DC0101900D920020E1F7089538
:101D7000FB0151915523A9F0BF01DC014D9145179D
:101D80004111E1F759F4CD010190002049F04D9146
:101D900040154111C9F3FB014111EFCF81E090E003
:101DA0000197089510E0C5E8D0E004C0FE010E944C
:0E1DB000AD0C2196C638D107C9F7F894FFCFC5
:101DBE0037323631364237373639373236353643A3
:101DCE00363537333733000000A303200000000000
:101DDE00004401B100DB0091010C01EA00FE00009D
:101DEE00000000D601B1005F02D50126023E02BD01
:101DFE00010D0A0053746172745550005374617270
:101E0E007420696E69742052414B383131207061F3
:101E1E0072616D65746572732E2E2E0061742B7354
:101E2E0065745F636F6E6669673D6C6F72613A735E
:101E3E00656E645F696E74657276616C3A004F4BC5
:101E4E000053746172742073656E642064617461F2
:101E5E002E2E2E0061742B73656E643D6C6F726155
:101E6E003A004552524F5200436C6F7365206175B4
:101E7E00746F206A6F696E20616E642073656E6484
:101E8E0020746F204C6F526157414E206661696C11
:101E9E0065642C20706C6561736520726573657462
:101EAE00206D6F64756C652E0036304335413846B3
:101EBE0046464530303130313000373042334435CC
:101ECE0037454430303239383733003334323435D5
:101EDE00434441453542453531433333343345323E
:101EEE0033463032463243443933360030303131A6
:101EFE00323233330036304335413846464645306C
:061F0E00303030303100DC
:00000001FF
