:100000000C9486000C94AE000C94AE000C94D605B3
:100010000C94D6050C94D6050C94AE000C94AE004E
:100020000C94AE000C94AE000C94AE000C94AE0098
:100030000C94AE000C94AE000C94AE000C94AE0088
:100040000C94D1070C94AE000C94A4050C947E057E
:100050000C94AE000C94AE000C94AE000C94AE0068
:100060000C94AE000C94AE0061742B7365745F63E6
:100070006F6E6669673D6465766963653A736C6542
:1000800065703A300061742B7365745F636F6E66E0
:1000900069673D6465766963653A736C6565703A56
:1000A000310061742B76657273696F6E0000000019
:1000B00000240027002A00000000080002010000C0
:1000C00003040700000000000000000000000023FF
:1000D000002600290000000000250028002B000455
:1000E00004040404040404020202020202030303DF
:1000F00003030301020408102040800102040810D9
:100100002001020408102000360BF30A11241FBE40
:10011000CFEFD8E0DEBFCDBF23E0A0E2B2E001C068
:100120001D92AD36B207E1F712E0A0E0B1E0E6E7DC
:10013000FEE102C005900D92A032B107D9F710E0A0
:10014000C5E8D0E004C02197FE010E94FB0CC43832
:10015000D107C9F70E94E3080C942E0F0C940000FD
:100160000895CF92DF92EF92FF920F931F93CF9358
:10017000DF936C017A018B01C0E0D0E0CE15DF0582
:1001800081F0D8016D918D01D601ED91FC91019026
:10019000F081E02DC6010995892B11F02196EECF53
:1001A0007E01C701DF91CF911F910F91FF90EF90DA
:1001B000DF90CF900895FC01538D448D252F30E0C2
:1001C000842F90E0821B930B541710F0CF96089564
:1001D00001970895FC01918D828D981761F0828DB1
:1001E000DF01A80FB11D5D968C91928D9F5F9F736B
:1001F000928F90E008958FEF9FEF0895FC01918D0D
:10020000828D981731F0828DE80FF11D858D90E079
:1002100008958FEF9FEF0895FC01918D228D892F16
:1002200090E0805C9F4F821B91098F7399270895FE
:1002300086E692E00E940C0121E0892B09F420E07F
:10024000822F0895FC01848DDF01A80FB11DA35AF0
:10025000BF4F2C91848D90E001968F739927848FE6
:10026000A689B7892C93A089B1898C918370806409
:100270008C93938D848D981306C00288F389E02DAA
:1002800080818F7D80830895EF92FF920F931F935B
:10029000CF93DF93EC0181E0888F9B8D8C8D981339
:1002A00005C0E889F989808185FD26C0F62E0B8D71
:1002B00010E00F5F1F4F0F731127E02E8C8DE81297
:1002C0000CC00FB607FCFACFE889F989808185FF59
:1002D000F5CFCE010E942201F1CF8B8DFE01E80FF8
:1002E000F11DE35AFF4FF0829FB7F8940B8FEA8914
:1002F000FB89808180620AC09FB7F894EE89FF89EC
:100300006083E889F98980818370806480839FBFDE
:1003100081E090E0DF91CF911F910F91FF90EF90DE
:100320000895CF93DF93EC01888D8823C9F0EA8983
:10033000FB89808185FD05C0A889B9898C9186FDDE
:100340000FC00FB607FCF5CF808185FFF2CFA889DB
:10035000B9898C9185FFEDCFCE010E942201E7CFB4
:10036000DF91CF91089580E090E0892B29F00E94E1
:10037000180181110C94000008952091030330911D
:1003800004032817390771F490916002809161028B
:10039000981741F0E0916002F0E0E05EFD4F80814F
:1003A00090E008958FEF9FEF089508951F93CF93E6
:1003B000DF93DC015C968D919C915D97009739F4F9
:1003C00021E030E013963C932E9312973BC0519658
:1003D000ED91FC91529750962C915097322F309579
:1003E0001FB75E964C915E97742F727041FD6095B9
:1003F000F8944081772311F0422B01C043234083BE
:10040000EC012197F1F748E0508160FF02C0522BC8
:1004100001C053235083EC012197F1F766954150B9
:1004200099F78081772319F08323808302C0282BDA
:1004300020831FBF5C968D919C915D970197F1F78A
:1004400081E090E0DF91CF911F9108952091030307
:10045000309104032817390771F4809161022091CB
:10046000600290E0805C9F4F821B910960E470E025
:100470000E94D30C089580E090E00895209103033A
:100480003091040328173907B9F4909160028091E4
:100490006102981789F0E0916002F0E0E05EFD4FA4
:1004A00080812091600230E02F5F3F4F2F73332710
:1004B0002093600290E008958FEF9FEF089580E011
:1004C00090E008950E94E80E6115710579F0FB0136
:1004D00001900020E9F73197AF01461B570BDC0173
:1004E000ED91FC910280F381E02D099480E090E091
:1004F00008950F931F93CF93DF93EC010E94640242
:100500008C0161E471E0CE010E946402800F911FB2
:10051000DF91CF911F910F9108950F931F93CF9368
:10052000DF93EC0188819981009729F02A813B8132
:100530002617370788F48B016F5F7F4F0E94220ECA
:10054000009761F0998388831B830A832C813D8106
:10055000232B11F4FC01108281E001C080E0DF91C7
:10056000CF911F910F910895CF93DF93EC01888174
:100570009981009711F00E94990D198218821D82AD
:100580001C821B821A82DF91CF910895EF92FF9215
:100590000F931F93CF93DF93EC018B0161157105CE
:1005A00051F0CB010E94520C7C01BC01CE010E9493
:1005B0008D02811104C0CE010E94B40207C0FD82E9
:1005C000EC82B801888199810E944B0CCE01DF91A9
:1005D000CF911F910F91FF90EF900895EF92FF92AE
:1005E0000F931F93CF93DF93EC017B018A01BA0134
:1005F0000E948D02811104C0CE010E94B40207C086
:100600001D830C83B701888199810E94FF0ECE0162
:10061000DF91CF911F910F91FF90EF900895AF92CE
:10062000BF92CF92DF92EF92FF920F931F93CF93DF
:10063000DF93DC01CD90DC901197C114D10409F453
:1006400043C01496CD91DC9115972097E9F18C0168
:1006500076015701BFEFAB1ABB0AF7018081082E64
:10066000000C990B0E94800C892B11F07501F1CFC1
:100670002197CC0DDD1D8881082E000C990B0E945E
:10068000800C892B29F0CE15DF0510F02197F3CFD0
:10069000AE014F5F5F4F4E195F09D80115965C930D
:1006A0004E931497CE14DF0420F4B701C6010E94C4
:1006B000ED0ED801ED91FC91119714968D919C91BE
:1006C0001597E80FF91F1082DF91CF911F910F91BD
:1006D000FF90EF90DF90CF90BF90AF900895EF9292
:1006E000FF920F931F93CF93DF936115710511F460
:1006F00080E01CC041155105C1F07B01EC018C81EB
:100700009D818A01080F191FB801CE010E948D0238
:10071000882371F3288139818C819D81B701820FF3
:10072000931F0E94FF0E1D830C8381E0DF91CF9108
:100730001F910F91FF90EF900895CF93DF93EC01FD
:100740006115710561F0FB0101900020E9F7319717
:10075000AF01461B570B0E946F03811103C0CE01EE
:100760000E94B402CE01DF91CF910895CF93DF9321
:10077000EC01FB018617970761F0608171816115BB
:10078000710529F0448155810E94EE0202C00E9449
:10079000B402CE01DF91CF910895FC018081918157
:1007A0000C94990DFC011182108213821282158221
:1007B00014826115710551F0FB0101900020E9F7E9
:1007C0003197AF01461B570B0C94EE0208950F931F
:1007D0001F93CF93DF93EC01FB014481558160812E
:1007E0007181E881F9810280F381E02D09958C0106
:1007F00061E471E0CE010E946402800F911FDF91DD
:10080000CF911F910F9108958F929F92AF92BF92B7
:10081000CF92DF92EF92FF920F931F93CF93DF93CC
:10082000CDB7DEB76E970FB6F894DEBF0FBECDBF63
:100830007C0163E471E0CE0149960E94D2031C8AD8
:100840001B8A1E8A1D8A188E1F8A4AE08E010F5F3E
:100850001F4FB80181E090E00E945B0CF80101900D
:100860000020E9F73197AF01401B510BB801CE01D1
:1008700043960E94EE0264E471E0C8010E94D20334
:100880004F89588D6B897C89C8010E946F03811143
:1008900003C0C8010E94B40260E571E0C8010E9473
:1008A0009D03B7010E949D03BC01CE0149960E94A1
:1008B000B603C8010E94CD03CE0143960E94CD032A
:1008C0001A8219821C821B821E821D82BE01675EF3
:1008D0007F4FC8010E94B603B801CE0143960E9423
:1008E0008408CE0143960E94B106CE0143960E9431
:1008F000CD03C8010E94CD032091500330915103D4
:100900008D8D9E8D2817390731F580914C0390917C
:100910004D03698D7A8D009719F061157105A9F461
:100920006115710551F02115310539F0FB01808108
:1009300090E09195819591090AC0009771F0232B61
:1009400061F0FC01808190E002C00E94F60EFF245D
:10095000F394892B21F0F12C02C0FF24F394CE01F3
:1009600049960E94CD03FF2009F4B5C08FB7F894D3
:100970008090620290906302A0906402B090650241
:100980008FBF2FB7F8948091620290916302A0917B
:100990006402B09165022FBF88199909AA09BB09A1
:1009A00080399F45A140B10508F095C0CE01499618
:1009B0000E9445088D8D9E8D892B81F0E98DFA8DE1
:1009C0008081882359F0CE0149960E940F03BE0111
:1009D000675E7F4F85E093E00E94E70362E571E088
:1009E000CE0143960E94D2038D8D9E8D892B71F08E
:1009F000C98CDA8C6B897C89C6010E94140F009720
:100A000029F08C199D0918161906F4F065E571E0B6
:100A1000C8010E94D2038D8D9E8D892B81F0C98CD7
:100A2000DA8C69817A81C6010E94140F009739F02F
:100A30008C199D09EE24E394181619060CF0E12C8C
:100A4000C8010E94CD0301C0EF2CCE0143960E9445
:100A5000CD03EE20D9F11A8219821C821B821E82DC
:100A60001D8265E870E0C8010E94C602B801CE018F
:100A700043960E948408CE0143960E94CD03C8018C
:100A80000E94CD0360E177E280E090E00E9497074A
:100A90001C8A1B8A1E8A1D8A188E1F8A68E670E0CF
:100AA000CE0143960E94C602BE016D5E7F4FC80113
:100AB0000E948408C8010E94CD03CE0143960E9483
:100AC000CD03CE0149960E94CD0305C0CE014996C3
:100AD0000E94CD0356CF6E960FB6F894DEBF0FBEC0
:100AE000CDBFDF91CF911F910F91FF90EF90DF90DD
:100AF000CF90BF90AF909F908F9008951F920F92CC
:100B00000FB60F9211242F933F934F935F936F93E0
:100B10007F938F939F93AF93BF93EF93FF9386E65B
:100B200092E00E942201FF91EF91BF91AF919F91BE
:100B30008F917F916F915F914F913F912F910F9086
:100B40000FBE0F901F9018951F920F920FB60F9225
:100B500011242F938F939F93EF93FF93E09176024D
:100B6000F09177028081E0917C02F0917D0282FD1C
:100B700012C0908180917F028F5F8F7320918002DD
:100B8000821751F0E0917F02F0E0EA59FD4F958F16
:100B900080937F0201C08081FF91EF919F918F919F
:100BA0002F910F900FBE0F901F9018951F920F92CC
:100BB0000FB60F9211242F933F934F935F936F9330
:100BC0007F938F939F93AF93BF93EF93FF93E091A6
:100BD0000303F0910403309709F451C0968DA68564
:100BE000B785858591FF04C09C91892329F447C06E
:100BF0009C91892309F043C0A389B4899C9185897C
:100C0000809589238C93868997890197F1F7608D68
:100C1000718DA685B785558538E020E0CB01019719
:100C2000F1F7822F90E095958795282F4C914523D9
:100C300009F02068315091F7868D81FD20958091D3
:100C4000610290E001968F73992730916002381706
:100C500049F0A0916102B0E0A05EBD4F2C9380935B
:100C6000610203C0868D8160868F828D938D01978E
:100C7000F1F7A389B4899C918589892B8C93FF9185
:100C8000EF91BF91AF919F918F917F916F915F9104
:100C90004F913F912F910F900FBE0F901F9018957D
:100CA000CF93DF93EC012FB7F8948091620290917B
:100CB0006302A0916402B09165022FBF8887998773
:100CC000AA87BB87E881F9810284F385E02DCE01F4
:100CD000099597FF1EC02FB7F894809162029091FA
:100CE0006302A0916402B09165022FBF48855985C7
:100CF0006A857B85841B950BA60BB70B4C815D81A8
:100D00006E817F8184179507A607B707D8F28FEF0A
:100D10009FEFDF91CF9108953FB7F89480915303EF
:100D200090915403A0915503B091560326B5A89B0A
:100D300005C02F3F19F00196A11DB11D3FBFBA2F6D
:100D4000A92F982F8827820F911DA11DB11DBC01CD
:100D5000CD0142E0660F771F881F991F4A95D1F792
:100D60000895CF93DF93EC0180914C0390914D0354
:100D70000097C9F0688179816115710591F0409102
:100D80004E0350914F032C813D814217530748F089
:100D90000E94FF0E8C819D8190935103809350039C
:100DA00018C00E94990D8881998190934D0380937A
:100DB0004C038A819B8190934F0380934E038C81D7
:100DC0009D819093510380935003198218821B8256
:100DD0001A821D821C82DF91CF910895FC0124812B
:100DE0003581FB014481558124173507A0F0FC01B2
:100DF00080819181009779F0FB016081718161159B
:100E0000710549F0241B350B820F931F0E94F60ECB
:100E100021E0892B09F020E0822F089590E0FC0169
:100E2000E954FF4F2491FC01ED50FF4F3491FC0138
:100E3000E152FF4FE491EE2309F43CC0222339F143
:100E4000233091F038F42130A9F0223001F584B537
:100E50008F7D12C0273091F02830A1F02430B9F4F2
:100E6000809180008F7D03C0809180008F77809378
:100E700080000DC084B58F7784BD09C08091B0001B
:100E80008F7703C08091B0008F7D8093B000F0E039
:100E9000EE0FFF1FEB52FF4FA591B4919FB7F8944F
:100EA000611104C08C913095382302C0EC913E2B27
:100EB0003C939FBF0895CF93DF9390E0FC01ED50EA
:100EC000FF4F2491FC01E152FF4F8491882361F18F
:100ED00090E0880F991FFC01E355FF4FC591D49115
:100EE000FC01EB52FF4FA591B491611109C09FB76E
:100EF000F8948881209582238883EC912E230BC05F
:100F0000623061F49FB7F8948881322F3095832343
:100F10008883EC912E2B2C939FBF06C08FB7F8943B
:100F2000E8812E2B28838FBFDF91CF9108958F9278
:100F30009F92AF92BF92CF92DF92EF92FF926B019E
:100F40007C010E948C064B015C01C114D104E104B8
:100F5000F104F1F00E948C06DC01CB01881999099B
:100F6000AA09BB09883E9340A105B10570F321E0B1
:100F7000C21AD108E108F10888EE880E83E0981EB5
:100F8000A11CB11CC114D104E104F10419F7DDCF97
:100F9000FF90EF90DF90CF90BF90AF909F908F9099
:100FA00008951F920F920FB60F9211242F933F9323
:100FB0008F939F93AF93BF9380916202909163024E
:100FC000A0916402B09165023091520323E0230F97
:100FD0002D3720F40196A11DB11D05C026E8230F71
:100FE0000296A11DB11D209352038093620290933B
:100FF0006302A0936402B0936502809153039091C1
:101000005403A0915503B09156030196A11DB11D43
:101010008093530390935403A0935503B0935603C6
:10102000BF91AF919F918F913F912F910F900FBEE4
:101030000F901F901895EF92FF920F931F93CF93ED
:10104000DF9300D0CDB7DEB78C017B0163E471E0A4
:101050000E94D203C7010E945006181619065CF4BC
:1010600089831A8241E050E0BE016F5F7F4FC80163
:101070000E946F03EFCFC8010F900F90DF91CF91C7
:101080001F910F91FF90EF9008950F931F93CF93AF
:10109000DF9300D000D000D0CDB7DEB78C016091D7
:1010A00024037091250380ED97E0A0E0B0E0FB0100
:1010B00084839583A683B783CE0101960E941B0883
:1010C000CE0101960E94B106CE0101960E94CD0389
:1010D0008CE493E00E940F03F801118210821382C6
:1010E0001282158214826CE473E0C8010E94B60378
:1010F000C80126960FB6F894DEBF0FBECDBFDF91B4
:10110000CF911F910F910895EF92FF920F931F932C
:10111000CF93DF9300D000D000D0CDB7DEB78C01E5
:101120007B018091240390912503DC01ED91FC91DA
:101130000084F185E02D0995A0912403B091250349
:10114000892B49F0ED91FC9111970284F385E02DF4
:10115000CD010995E6CFB701CD010E94E70368EC08
:1011600070E080E090E00E94970760912403709106
:101170002503CE0101960E941B08CE0101960E9414
:10118000B106CE0101960E94CD038CE493E00E944B
:101190000F03F801118210821382128215821482C9
:1011A0006CE473E0C8010E94B603C80126960FB62E
:1011B000F894DEBF0FBECDBFDF91CF911F910F918D
:1011C000FF90EF900895CF93DF93CDB7DEB72C97C4
:1011D0000FB6F894DEBF0FBECDBF789484B58260A1
:1011E00084BD84B5816084BD85B5826085BD85B5CB
:1011F000816085BD80916E00816080936E00109249
:1012000081008091810082608093810080918100C3
:101210008160809381008091800081608093800054
:101220008091B10084608093B1008091B0008160B2
:101230008093B00080917A00846080937A008091DE
:101240007A00826080937A0080917A008160809336
:101250007A0080917A00806880937A001092C100B1
:1012600060E08AE00E945B0761E08BE00E945B0720
:101270001092200310921F0310921E0310921D0360
:1012800010921C0310921B038FE190E090932203B5
:101290008093210390911103963108F058C021E00A
:1012A00030E030931C0320931B032DE130E030939A
:1012B0001E0320931D032DE030E030932003209384
:1012C0001F0340916800983058F031E09E3008F4D8
:1012D00030E021E0822F01C0880F3A95EAF701C083
:1012E00084E0842B80936800983038F09E3040F082
:1012F000963148F020E030E008C02DE630E005C02F
:101300002BE630E002C02CE630E030931903209346
:101310001803983030F481E001C0880F9A95EAF7FD
:101320000EC0292F30E09E3018F42850310902C039
:101330002E50310981E001C0880F2A95EAF7809389
:101340001A0380912103909122030197F1F7809174
:101350001F0390912003892B49F1E0910303F09141
:10136000040383E0E530F80709F1309739F0A389E9
:10137000B4899C918589809589238C9380912303DE
:101380008E7F80932303109261021092600285E0A9
:1013900093E09093040380930303E0911803F0918A
:1013A0001903908180911A03892B808385E093E053
:1013B0000E943E0297FFFACF6BE571E085E093E073
:1013C0000E947902E0917602F091770282E08083B8
:1013D000E0917202F09173021082E0917402F09138
:1013E000750280E1808310927E02E0917A02F09192
:1013F0007B0286E08083E0917802F091790280811F
:1014000080618083E0917802F09179028081886028
:101410008083E0917802F0917902808180688083F6
:10142000E0917802F091790280818F7D808386E659
:1014300092E00E940C01892B29F086E692E00E943E
:10144000EA00F5CF1A8219821C821B821E821D823D
:1014500062EA70E0CE0101960E94C602BE016F5F93
:101460007F4FCE0107960E948408CE0107960E9406
:10147000B106CE0107960E94CD03CE0101960E94CF
:10148000CD038CE493E00E940F031A8219821C8220
:101490001B821E821D826CE473E0CE0101960E94C5
:1014A000B603BE016F5F7F4F85E093E00E94E703C4
:1014B000CE0101960E94CD0368EC70E080E090E0E0
:1014C0000E94970763E671E085E093E00E9479024D
:1014D00080E091E00E940404CE0107960E94450836
:1014E0008B859C85892B11F410E06AC066E771E05A
:1014F00086E692E00E946402BE01695F7F4F86E645
:1015000092E00E94E70361E871E0CE0101960E943B
:10151000D2034D815E818B859C858417950770F081
:101520008F819885009751F069817A8161157105E5
:1015300029F00E94060F11E0892B09F010E0CE017E
:1015400001960E94CD03112379F26CE871E0CE017F
:1015500001960E94D203BE016F5F7F4FCE010796B6
:101560000E94EE06182FCE0101960E94CD03112392
:1015700041F061E971E086E692E00E94640261E078
:101580001BC060EA71E0CE0101960E94D203BE0149
:101590006F5F7F4FCE0107960E94EE06182FCE0197
:1015A00001960E94CD03112351F065EA71E086E6B1
:1015B00092E00E94640260E084E00E940E0711E065
:1015C000CE0107960E94CD03112351F065EB71E027
:1015D00085E093E00E94790283E491E00E94040494
:1015E0000E94B3016FCF86E493E00E94CD0380E4B4
:1015F00093E00E94CD038AE393E00E94CD0384E34D
:1016000093E00E94CD038EE293E00E94CD0388E236
:1016100093E00E94CD0383E391E0909306038093CF
:10162000050380910303909104038550934071F466
:10163000E0911803F0911903908180911A0380952D
:1016400089238083109204031092030383E693E0BE
:101650000E94CD038DE593E00E94CD0387E593E0E2
:101660000E94CD038CE493E00C94CD03CF92DF92E3
:10167000EF92FF92109269021092680298EEC92EC2
:1016800093E0D92EE12CF12CC0926A02D0926B0229
:10169000E0926C02F0926D0281E291E09093670219
:1016A0008093660285EC90E09093730280937202BF
:1016B00084EC90E0909375028093740280EC90E04B
:1016C000909377028093760281EC90E09093790278
:1016D0008093780282EC90E090937B0280937A0270
:1016E00086EC90E090937D0280937C0210927F02C2
:1016F00010928002109281021092820263E471E0E3
:101700008CE493E00E94D20363EC71E087E593E000
:101710000E94D20364ED71E08DE593E00E94D20354
:1017200065EE71E083E693E00E94D2031092080315
:1017300010920703C0920903D0920A03E0920B03B0
:10174000F0920C0383E391E09093060380930503EA
:1017500010921C0310921B0310921E0310921D0383
:101760001092200310921F03109222031092210363
:10177000609123036E7F6D7F609323036695617094
:1017800081E068278BE00E940E0761E08BE00E94F9
:101790005B07EEEFF0E0E491E0931503EAEEF0E092
:1017A000E491F0E0EE0FFF1FEB52FF4F8591949113
:1017B000909317038093160360E08AE00E945B0712
:1017C0008091230381FD04C061E08AE00E940E073E
:1017D0008AE080931103EDEFF0E0E491E0931203CF
:1017E000E9EEF0E0E491F0E0EE0FFF1FE553FF4F6C
:1017F00085919491909314038093130386E692E06D
:10180000909325038093240385E093E0909327032E
:101810008093260366E072E088E293E00E94D203A0
:101820006FE072E08EE293E00E94D20363E471E025
:1018300084E393E00E94D20363E471E08AE393E0DF
:101840000E94D20363E471E080E493E00E94D2033B
:1018500063E471E086E493E00E94D203E091240304
:10186000F091250380ED97E0A0E0B0E084839583BC
:10187000A683B783E0912603F091270388EE93E0D7
:10188000A0E0B0E084839583A683B783FF90EF90B8
:10189000DF90CF900895FB01DC0105900D920020B0
:1018A000E1F70895FC0105900020E9F780959095F7
:1018B0008E0F9F1F0895BB274A3031F4992322F4DD
:1018C000BDE2909581959F4F0C94670CBB27FB015F
:1018D0005527AA27880F991FAA1FA41710F0A41B29
:1018E00083955051B9F7A05DAA3308F0A95DA19383
:1018F000009779F7B111B1931192CB010C94890C37
:1019000091110C94990C803219F089508550C8F7C8
:101910000895DC01FC01672F71917723E1F732977D
:1019200004C07C916D9370836291AE17BF07C8F3BA
:1019300008959927882708952F923F924F925F929A
:101940006F927F928F929F92AF92BF92CF92DF92CF
:10195000EF92FF920F931F93CF93DF93CDB7DEB734
:10196000CA1BDB0B0FB6F894DEBF0FBECDBF0994C8
:101970002A88398848885F846E847D848C849B841F
:10198000AA84B984C884DF80EE80FD800C811B812D
:10199000AA81B981CE0FD11D0FB6F894DEBF0FBE5C
:1019A000CDBFED01089597FB072E16F4009407D0E4
:1019B00077FD09D00E94E70C07FC05D03EF4909516
:1019C00081959F4F0895709561957F4F0895AA1B4B
:1019D000BB1B51E107C0AA1FBB1FA617B70710F01A
:1019E000A61BB70B881F991F5A95A9F7809590954C
:1019F000BC01CD010895EE0FFF1F0590F491E02D7D
:101A000009940F931F93CF93DF938230910510F4C5
:101A100082E090E0E0916B03F0916C0320E030E015
:101A2000A0E0B0E0309719F140815181028113812B
:101A300048175907C8F08417950769F4109731F0D3
:101A400012960C93129713961C9327C000936B0366
:101A500010936C0322C02115310519F0421753076A
:101A600018F49A01BD01EF01DF01F801DBCF211568
:101A70003105F9F0281B390B2430310580F48A81B7
:101A80009B816115710521F0FB019383828304C062
:101A900090936C0380936B03FE01329644C0FE0169
:101AA000E20FF31F819391932250310939832883E8
:101AB0003AC02091690330916A03232B41F42091AD
:101AC000190130911A0130936A0320936903209120
:101AD0001701309118012115310541F42DB73EB79A
:101AE00040911B0150911C01241B350BE0916903AF
:101AF000F0916A03E217F307A0F42E1B3F0B28179F
:101B0000390778F0AC014E5F5F4F2417350748F076
:101B10004E0F5F1F50936A03409369038193919323
:101B200002C0E0E0F0E0CF01DF91CF911F910F9173
:101B30000895CF93DF93009709F481C0FC01329799
:101B400013821282A0916B03B0916C03109781F401
:101B500020813181820F931F2091690330916A03A4
:101B60002817390751F5F0936A03E093690367C0BA
:101B7000ED0120E030E0CE17DF0740F44A815B81C1
:101B80009E0141155105F1F0EA01F5CFD383C283DF
:101B900040815181840F951FC817D90759F4888156
:101BA0009981840F951F0296918380838A819B81FE
:101BB000938382832115310529F4F0936C03E0931C
:101BC0006B033DC0E901FB83EA8349915991C40F3E
:101BD000D51FEC17FD0761F480819181840F951F5B
:101BE0000296E90199838883828193819B838A830A
:101BF000E0E0F0E012968D919C911397009719F018
:101C0000FD01DC01F7CF8D919C9111979D012E5F15
:101C10003F4F820F931F2091690330916A03281769
:101C2000390769F4309729F410926C0310926B0312
:101C300002C013821282B0936A03A0936903DF91FA
:101C4000CF910895A0E0B0E0E8E2FEE00C94A00C93
:101C5000EC01009721F4CB010E94010DB4C0FC01FE
:101C6000E60FF71F9C0122503109E217F30708F431
:101C7000A8C0D9010D911C91119706171707B0F054
:101C80000530110508F49BC0C80104978617970713
:101C900008F495C002501109061B170B019311930C
:101CA0006D937C93CF010E94990D89C05B01A01AAE
:101CB000B10A4C01800E911EA0916B03B0916C0390
:101CC000612C712CE12CF12C109709F446C08D91F8
:101CD0009C911197A815B905B1F56C0142E0C40EAD
:101CE000D11CCA14DB0478F14C018A189B086401EA
:101CF00042E0C40ED11C1296BC9012971396AC9180
:101D0000B5E0CB16D10440F0B282A38391828082E9
:101D1000D9016D937C9309C00E5F1F4F800F911FF7
:101D2000F90191838083EB2DFA2FE114F10431F056
:101D3000D7011396FC93EE93129741C0F0936C0376
:101D4000E0936B033CC06816790608F43C017D0102
:101D500012960D90BC91A02DB7CF80916903909100
:101D60006A0388169906E1F466167706C8F480912E
:101D7000170190911801009741F48DB79EB74091DB
:101D80001B0150911C01841B950BE817F907C8F43F
:101D9000F0936A03E0936903F901718360830FC0D4
:101DA000CB010E94010D7C01009759F0A801BE01F2
:101DB0000E94ED0ECE010E94990DC70104C0CE0114
:101DC00002C080E090E0CDB7DEB7EEE00C94BC0C32
:101DD00081E090E0F8940C942E0FFB01DC0102C02E
:101DE00001900D9241505040D8F70895FB01DC015D
:101DF0008D91019080190110D9F3990B0895FB0181
:101E0000DC0101900D920020E1F70895FB01DC0157
:101E10004150504030F08D910190801919F400200C
:101E2000B9F7881B990B0895FB0151915523A9F02F
:101E3000BF01DC014D9145174111E1F759F4CD0186
:101E40000190002049F04D9140154111C9F3FB016B
:101E50004111EFCF81E090E00197089510E0C5E8CF
:101E6000D0E004C0FE010E94FB0C2196C638D107C9
:061E7000C9F7F894FFCF52
:101E76003638363536633663366632303737366649
:101E86003732366336340000006D03200000000050
:101E9600004401B100DB0091010C01EA00FE0000E4
:101EA600000000D601B1005F02D50126023E02BD48
:101EB600010D0A0061742B73656E643D6C6F72616F
:101EC6003A004F4B004552524F52005374617274A0
:101ED60055500053746172742073656E642064619A
:101EE60074612E2E2E00526573706F6E73653A20E4
:101EF6000061742B726563763D302C00363636668B
:101F0600005475726E696E672066616E206F6E0092
:101F160036363738005475726E696E672066616EA4
:101F2600206F666600446174612072656365697638
:101F360065640036304335413846464645303031D3
:101F46003031300037304233443537454430303253
:101F5600393837330033343234354344414535421A
:101F660045353143333334334532334630324632E6
:101F76004344393336003030313132323333003670
:101F860030433541384646464530303030303100F2
:00000001FF
